{
  "transactions": [
    {
      "hash": "0x012248e1d0ccbf2dc924c12171d7cd912190bc3e16129707bbe6ce3becad99ae",
      "transactionType": "CREATE",
      "contractName": "BoxV2",
      "contractAddress": "0xe40e4b35d1e89d6ac885f1077be43e80236d43b7",
      "function": null,
      "arguments": null,
      "transaction": {
        "from": "0x1cc0cb2ad6aae18c59728a76b87a365ee9c2ec99",
        "gas": "0xc701d",
        "value": "0x0",
        "input": "0x60a060405230608052348015610013575f5ffd5b5061001c610021565b6100d3565b7ff0c57e16840df040f15088dc2f81fe391c3923bec73e23a9662efc9c229c6a00805468010000000000000000900460ff16156100715760405163f92ee8a960e01b815260040160405180910390fd5b80546001600160401b03908116146100d05780546001600160401b0319166001600160401b0390811782556040519081527fc7f505b2f371ae2175ee4913f4499e1f2633a7b5936321eed1cdaeb6115181d29060200160405180910390a15b50565b6080516109e76100f95f395f81816103630152818161038c01526104d001526109e75ff3fe60806040526004361061008f575f3560e01c80638129fc1c116100575780638129fc1c1461011c5780638da5cb5b14610130578063ad3cb1cc14610176578063f2c9ecd8146101b3578063f2fde38b146101c6575f5ffd5b80633fb5c1cb146100935780634f1ef286146100b357806352d1902d146100c657806354fd4d50146100ed578063715018a614610108575b5f5ffd5b34801561009e575f5ffd5b506100b16100ad36600461080c565b5f55565b005b6100b16100c1366004610852565b6101e5565b3480156100d1575f5ffd5b506100da610204565b6040519081526020015b60405180910390f35b3480156100f8575f5ffd5b50604051600281526020016100e4565b348015610113575f5ffd5b506100b161021f565b348015610127575f5ffd5b506100b1610232565b34801561013b575f5ffd5b507f9016d09d72d40fdae2fd8ceac6b6234c7706214fd39c1cd1e609a0528c199300546040516001600160a01b0390911681526020016100e4565b348015610181575f5ffd5b506101a6604051806040016040528060058152602001640352e302e360dc1b81525081565b6040516100e49190610916565b3480156101be575f5ffd5b505f546100da565b3480156101d1575f5ffd5b506100b16101e036600461094b565b610316565b6101ed610358565b6101f6826103fc565b6102008282610404565b5050565b5f61020d6104c5565b505f5160206109925f395f51905f5290565b61022761050e565b6102305f610569565b565b7ff0c57e16840df040f15088dc2f81fe391c3923bec73e23a9662efc9c229c6a00805460029190600160401b900460ff168061027c5750805467ffffffffffffffff808416911610155b1561029a5760405163f92ee8a960e01b815260040160405180910390fd5b805468ffffffffffffffffff191667ffffffffffffffff831617600160401b1781556102c5336105d9565b805468ff00000000000000001916815560405167ffffffffffffffff831681527fc7f505b2f371ae2175ee4913f4499e1f2633a7b5936321eed1cdaeb6115181d29060200160405180910390a15050565b61031e61050e565b6001600160a01b03811661034c57604051631e4fbdf760e01b81525f60048201526024015b60405180910390fd5b61035581610569565b50565b306001600160a01b037f00000000000000000000000000000000000000000000000000000000000000001614806103de57507f00000000000000000000000000000000000000000000000000000000000000006001600160a01b03166103d25f5160206109925f395f51905f52546001600160a01b031690565b6001600160a01b031614155b156102305760405163703e46dd60e11b815260040160405180910390fd5b61035561050e565b816001600160a01b03166352d1902d6040518163ffffffff1660e01b8152600401602060405180830381865afa92505050801561045e575060408051601f3d908101601f1916820190925261045b91810190610964565b60015b61048657604051634c9c8ce360e01b81526001600160a01b0383166004820152602401610343565b5f5160206109925f395f51905f5281146104b657604051632a87526960e21b815260048101829052602401610343565b6104c083836105ea565b505050565b306001600160a01b037f000000000000000000000000000000000000000000000000000000000000000016146102305760405163703e46dd60e11b815260040160405180910390fd5b336105407f9016d09d72d40fdae2fd8ceac6b6234c7706214fd39c1cd1e609a0528c199300546001600160a01b031690565b6001600160a01b0316146102305760405163118cdaa760e01b8152336004820152602401610343565b7f9016d09d72d40fdae2fd8ceac6b6234c7706214fd39c1cd1e609a0528c19930080546001600160a01b031981166001600160a01b03848116918217845560405192169182907f8be0079c531659141344cd1fd0a4f28419497f9722a3daafe3b4186f6b6457e0905f90a3505050565b6105e161063f565b61035581610688565b6105f382610690565b6040516001600160a01b038316907fbc7cd75a20ee27fd9adebab32041f755214dbc6bffa90cc0225b39da2e5c2d3b905f90a2805115610637576104c082826106f3565b610200610765565b7ff0c57e16840df040f15088dc2f81fe391c3923bec73e23a9662efc9c229c6a0054600160401b900460ff1661023057604051631afcd79f60e31b815260040160405180910390fd5b61031e61063f565b806001600160a01b03163b5f036106c557604051634c9c8ce360e01b81526001600160a01b0382166004820152602401610343565b5f5160206109925f395f51905f5280546001600160a01b0319166001600160a01b0392909216919091179055565b60605f5f846001600160a01b03168460405161070f919061097b565b5f60405180830381855af49150503d805f8114610747576040519150601f19603f3d011682016040523d82523d5f602084013e61074c565b606091505b509150915061075c858383610784565b95945050505050565b34156102305760405163b398979f60e01b815260040160405180910390fd5b60608261079957610794826107e3565b6107dc565b81511580156107b057506001600160a01b0384163b155b156107d957604051639996b31560e01b81526001600160a01b0385166004820152602401610343565b50805b9392505050565b8051156107f35780518082602001fd5b60405163d6bda27560e01b815260040160405180910390fd5b5f6020828403121561081c575f5ffd5b5035919050565b80356001600160a01b0381168114610839575f5ffd5b919050565b634e487b7160e01b5f52604160045260245ffd5b5f5f60408385031215610863575f5ffd5b61086c83610823565b9150602083013567ffffffffffffffff811115610887575f5ffd5b8301601f81018513610897575f5ffd5b803567ffffffffffffffff8111156108b1576108b161083e565b604051601f8201601f19908116603f0116810167ffffffffffffffff811182821017156108e0576108e061083e565b6040528181528282016020018710156108f7575f5ffd5b816020840160208301375f602083830101528093505050509250929050565b602081525f82518060208401528060208501604085015e5f604082850101526040601f19601f83011684010191505092915050565b5f6020828403121561095b575f5ffd5b6107dc82610823565b5f60208284031215610974575f5ffd5b5051919050565b5f82518060208501845e5f92019182525091905056fe360894a13ba1a3210667c828492db98dca3e2076cc3735a920a3ca505d382bbca26469706673582212200c3e4d9a1fc1ea982bd38ef42f74c7ef5f9c0379481cd6af3184285937b4c59264736f6c634300081c0033",
        "nonce": "0xb4",
        "chainId": "0xaa36a7"
      },
      "additionalContracts": [],
      "isFixedGasLimit": false
    },
    {
      "hash": "0x0b328f4d19fa3b281b2338c5e78f8f12367ca0a686865c0297b1a55db805818c",
      "transactionType": "CALL",
      "contractName": null,
      "contractAddress": "0x302244234a9425b5969cad7d46f9072b04a9b681",
      "function": "upgradeToAndCall(address,bytes)",
      "arguments": [
        "0xe40E4b35d1e89D6Ac885F1077be43e80236d43B7",
        "0x"
      ],
      "transaction": {
        "from": "0x1cc0cb2ad6aae18c59728a76b87a365ee9c2ec99",
        "to": "0x302244234a9425b5969cad7d46f9072b04a9b681",
        "gas": "0xca96",
        "value": "0x0",
        "input": "0x4f1ef286000000000000000000000000e40e4b35d1e89d6ac885f1077be43e80236d43b700000000000000000000000000000000000000000000000000000000000000400000000000000000000000000000000000000000000000000000000000000000",
        "nonce": "0xb5",
        "chainId": "0xaa36a7"
      },
      "additionalContracts": [],
      "isFixedGasLimit": false
    }
  ],
  "receipts": [
    {
      "status": "0x1",
      "cumulativeGasUsed": "0xdd6dbd",
      "logs": [
        {
          "address": "0xe40e4b35d1e89d6ac885f1077be43e80236d43b7",
          "topics": [
            "0xc7f505b2f371ae2175ee4913f4499e1f2633a7b5936321eed1cdaeb6115181d2"
          ],
          "data": "0x000000000000000000000000000000000000000000000000ffffffffffffffff",
          "blockHash": "0x99da68e52622d686c058bcb21a0fe172ad6a407a08fe748b6d983f1624121ee7",
          "blockNumber": "0x6e05d9",
          "transactionHash": "0x012248e1d0ccbf2dc924c12171d7cd912190bc3e16129707bbe6ce3becad99ae",
          "transactionIndex": "0x8a",
          "logIndex": "0xf2",
          "removed": false
        }
      ],
      "logsBloom": "0x00000000000000000000000000000000000000000000000000000000000000000000000000000000000000000000000100000000000000000000000000000000000000000000000000000000000000000000000000000000000000000000000000000000000000000000000000000000000000000000000000000000000000000000000000000000000800000000000000000000000080000000000000000000000000000000000000000000000000000000000000000000000000000000000040000000000000000000000000000000000000000004000000000001000000000000000000000000000000000000000000000000000000000000000000000000",
      "type": "0x2",
      "transactionHash": "0x012248e1d0ccbf2dc924c12171d7cd912190bc3e16129707bbe6ce3becad99ae",
      "transactionIndex": "0x8a",
      "blockHash": "0x99da68e52622d686c058bcb21a0fe172ad6a407a08fe748b6d983f1624121ee7",
      "blockNumber": "0x6e05d9",
      "gasUsed": "0x99152",
      "effectiveGasPrice": "0x1026e5093",
      "from": "0x1cc0cb2ad6aae18c59728a76b87a365ee9c2ec99",
      "to": null,
      "contractAddress": "0xe40e4b35d1e89d6ac885f1077be43e80236d43b7"
    },
    {
      "status": "0x1",
      "cumulativeGasUsed": "0xde0069",
      "logs": [
        {
          "address": "0x302244234a9425b5969cad7d46f9072b04a9b681",
          "topics": [
            "0xbc7cd75a20ee27fd9adebab32041f755214dbc6bffa90cc0225b39da2e5c2d3b",
            "0x000000000000000000000000e40e4b35d1e89d6ac885f1077be43e80236d43b7"
          ],
          "data": "0x",
          "blockHash": "0x99da68e52622d686c058bcb21a0fe172ad6a407a08fe748b6d983f1624121ee7",
          "blockNumber": "0x6e05d9",
          "transactionHash": "0x0b328f4d19fa3b281b2338c5e78f8f12367ca0a686865c0297b1a55db805818c",
          "transactionIndex": "0x8b",
          "logIndex": "0xf3",
          "removed": false
        }
      ],
      "logsBloom": "0x00000000000000000000000000000000400000000000000000000000000000000000000010000000000000000000000000000000000000000000000000000000000000000000000000000000000002000000000000000000000000000000000000000000000000000000000000000000000000000000000000000000000000000000000000000000000000000000000000000000000000000000000000000000000000000000000000000000040100000000000000000080000000000000000000000020000000000000000000000000000004000000000000000000000000000000000000000000000000000000000000000000000100000000000000000000",
      "type": "0x2",
      "transactionHash": "0x0b328f4d19fa3b281b2338c5e78f8f12367ca0a686865c0297b1a55db805818c",
      "transactionIndex": "0x8b",
      "blockHash": "0x99da68e52622d686c058bcb21a0fe172ad6a407a08fe748b6d983f1624121ee7",
      "blockNumber": "0x6e05d9",
      "gasUsed": "0x92ac",
      "effectiveGasPrice": "0x1026e5093",
      "from": "0x1cc0cb2ad6aae18c59728a76b87a365ee9c2ec99",
      "to": "0x302244234a9425b5969cad7d46f9072b04a9b681",
      "contractAddress": null
    }
  ],
  "libraries": [],
  "pending": [],
  "returns": {
    "0": {
      "internal_type": "address",
      "value": "0x302244234A9425B5969CAD7d46f9072B04a9b681"
    }
  },
  "timestamp": 1733326248,
  "chain": 11155111,
  "commit": "b8bbffb"
}